{
  "_format": "hh-sol-artifact-1",
  "contractName": "MyToken",
  "sourceName": "contracts/SampleERC721.sol",
  "abi": [
    {
      "inputs": [],
      "stateMutability": "nonpayable",
      "type": "constructor"
    },
    {
      "anonymous": false,
      "inputs": [
        {
          "indexed": true,
          "internalType": "address",
          "name": "owner",
          "type": "address"
        },
        {
          "indexed": true,
          "internalType": "address",
          "name": "approved",
          "type": "address"
        },
        {
          "indexed": true,
          "internalType": "uint256",
          "name": "tokenId",
          "type": "uint256"
        }
      ],
      "name": "Approval",
      "type": "event"
    },
    {
      "anonymous": false,
      "inputs": [
        {
          "indexed": true,
          "internalType": "address",
          "name": "owner",
          "type": "address"
        },
        {
          "indexed": true,
          "internalType": "address",
          "name": "operator",
          "type": "address"
        },
        {
          "indexed": false,
          "internalType": "bool",
          "name": "approved",
          "type": "bool"
        }
      ],
      "name": "ApprovalForAll",
      "type": "event"
    },
    {
      "anonymous": false,
      "inputs": [
        {
          "indexed": true,
          "internalType": "address",
          "name": "from",
          "type": "address"
        },
        {
          "indexed": true,
          "internalType": "address",
          "name": "to",
          "type": "address"
        },
        {
          "indexed": true,
          "internalType": "uint256",
          "name": "tokenId",
          "type": "uint256"
        }
      ],
      "name": "Transfer",
      "type": "event"
    },
    {
      "inputs": [
        {
          "internalType": "address",
          "name": "to",
          "type": "address"
        },
        {
          "internalType": "uint256",
          "name": "tokenId",
          "type": "uint256"
        }
      ],
      "name": "approve",
      "outputs": [],
      "stateMutability": "nonpayable",
      "type": "function"
    },
    {
      "inputs": [
        {
          "internalType": "address",
          "name": "owner",
          "type": "address"
        }
      ],
      "name": "balanceOf",
      "outputs": [
        {
          "internalType": "uint256",
          "name": "",
          "type": "uint256"
        }
      ],
      "stateMutability": "view",
      "type": "function"
    },
    {
      "inputs": [
        {
          "internalType": "uint256",
          "name": "tokenId",
          "type": "uint256"
        }
      ],
      "name": "burn",
      "outputs": [],
      "stateMutability": "nonpayable",
      "type": "function"
    },
    {
      "inputs": [
        {
          "internalType": "uint256",
          "name": "tokenId",
          "type": "uint256"
        }
      ],
      "name": "getApproved",
      "outputs": [
        {
          "internalType": "address",
          "name": "",
          "type": "address"
        }
      ],
      "stateMutability": "view",
      "type": "function"
    },
    {
      "inputs": [
        {
          "internalType": "address",
          "name": "owner",
          "type": "address"
        },
        {
          "internalType": "address",
          "name": "operator",
          "type": "address"
        }
      ],
      "name": "isApprovedForAll",
      "outputs": [
        {
          "internalType": "bool",
          "name": "",
          "type": "bool"
        }
      ],
      "stateMutability": "view",
      "type": "function"
    },
    {
      "inputs": [
        {
          "internalType": "uint256",
          "name": "amount",
          "type": "uint256"
        }
      ],
      "name": "mint",
      "outputs": [],
      "stateMutability": "nonpayable",
      "type": "function"
    },
    {
      "inputs": [
        {
          "internalType": "address",
          "name": "recipient",
          "type": "address"
        },
        {
          "internalType": "uint256",
          "name": "amount",
          "type": "uint256"
        }
      ],
      "name": "mintTo",
      "outputs": [],
      "stateMutability": "nonpayable",
      "type": "function"
    },
    {
      "inputs": [],
      "name": "name",
      "outputs": [
        {
          "internalType": "string",
          "name": "",
          "type": "string"
        }
      ],
      "stateMutability": "view",
      "type": "function"
    },
    {
      "inputs": [
        {
          "internalType": "uint256",
          "name": "tokenId",
          "type": "uint256"
        }
      ],
      "name": "ownerOf",
      "outputs": [
        {
          "internalType": "address",
          "name": "",
          "type": "address"
        }
      ],
      "stateMutability": "view",
      "type": "function"
    },
    {
      "inputs": [
        {
          "internalType": "address",
          "name": "from",
          "type": "address"
        },
        {
          "internalType": "address",
          "name": "to",
          "type": "address"
        },
        {
          "internalType": "uint256",
          "name": "tokenId",
          "type": "uint256"
        }
      ],
      "name": "safeTransferFrom",
      "outputs": [],
      "stateMutability": "nonpayable",
      "type": "function"
    },
    {
      "inputs": [
        {
          "internalType": "address",
          "name": "from",
          "type": "address"
        },
        {
          "internalType": "address",
          "name": "to",
          "type": "address"
        },
        {
          "internalType": "uint256",
          "name": "tokenId",
          "type": "uint256"
        },
        {
          "internalType": "bytes",
          "name": "_data",
          "type": "bytes"
        }
      ],
      "name": "safeTransferFrom",
      "outputs": [],
      "stateMutability": "nonpayable",
      "type": "function"
    },
    {
      "inputs": [
        {
          "internalType": "address",
          "name": "operator",
          "type": "address"
        },
        {
          "internalType": "bool",
          "name": "approved",
          "type": "bool"
        }
      ],
      "name": "setApprovalForAll",
      "outputs": [],
      "stateMutability": "nonpayable",
      "type": "function"
    },
    {
      "inputs": [
        {
          "internalType": "bytes4",
          "name": "interfaceId",
          "type": "bytes4"
        }
      ],
      "name": "supportsInterface",
      "outputs": [
        {
          "internalType": "bool",
          "name": "",
          "type": "bool"
        }
      ],
      "stateMutability": "view",
      "type": "function"
    },
    {
      "inputs": [],
      "name": "symbol",
      "outputs": [
        {
          "internalType": "string",
          "name": "",
          "type": "string"
        }
      ],
      "stateMutability": "view",
      "type": "function"
    },
    {
      "inputs": [
        {
          "internalType": "uint256",
          "name": "tokenId",
          "type": "uint256"
        }
      ],
      "name": "tokenURI",
      "outputs": [
        {
          "internalType": "string",
          "name": "",
          "type": "string"
        }
      ],
      "stateMutability": "view",
      "type": "function"
    },
    {
      "inputs": [
        {
          "internalType": "address",
          "name": "from",
          "type": "address"
        },
        {
          "internalType": "address",
          "name": "to",
          "type": "address"
        },
        {
          "internalType": "uint256",
          "name": "tokenId",
          "type": "uint256"
        }
      ],
      "name": "transferFrom",
      "outputs": [],
      "stateMutability": "nonpayable",
      "type": "function"
    }
  ],
  "bytecode": "0x60806040523480156200001157600080fd5b506040518060400160405280600781526020017f4d79546f6b656e000000000000000000000000000000000000000000000000008152506040518060400160405280600381526020017f4d544b0000000000000000000000000000000000000000000000000000000000815250816000908051906020019062000096929190620000b8565b508060019080519060200190620000af929190620000b8565b505050620001cd565b828054620000c69062000168565b90600052602060002090601f016020900481019282620000ea576000855562000136565b82601f106200010557805160ff191683800117855562000136565b8280016001018555821562000136579182015b828111156200013557825182559160200191906001019062000118565b5b50905062000145919062000149565b5090565b5b80821115620001645760008160009055506001016200014a565b5090565b600060028204905060018216806200018157607f821691505b602082108114156200019857620001976200019e565b5b50919050565b7f4e487b7100000000000000000000000000000000000000000000000000000000600052602260045260246000fd5b612a2380620001dd6000396000f3fe608060405234801561001057600080fd5b50600436106101005760003560e01c80636352211e11610097578063a22cb46511610066578063a22cb465146102a9578063b88d4fde146102c5578063c87b56dd146102e1578063e985e9c51461031157610100565b80636352211e1461020f57806370a082311461023f57806395d89b411461026f578063a0712d681461028d57610100565b806323b872dd116100d357806323b872dd1461019f57806342842e0e146101bb57806342966c68146101d7578063449a52f8146101f357610100565b806301ffc9a71461010557806306fdde0314610135578063081812fc14610153578063095ea7b314610183575b600080fd5b61011f600480360381019061011a9190611b93565b610341565b60405161012c9190611f76565b60405180910390f35b61013d610423565b60405161014a9190611f91565b60405180910390f35b61016d60048036038101906101689190611be5565b6104b5565b60405161017a9190611f0f565b60405180910390f35b61019d60048036038101906101989190611b57565b61053a565b005b6101b960048036038101906101b49190611a51565b610652565b005b6101d560048036038101906101d09190611a51565b6106b2565b005b6101f160048036038101906101ec9190611be5565b6106d2565b005b61020d60048036038101906102089190611b57565b61072e565b005b61022960048036038101906102249190611be5565b61075a565b6040516102369190611f0f565b60405180910390f35b610259600480360381019061025491906119ec565b61080c565b6040516102669190612193565b60405180910390f35b6102776108c4565b6040516102849190611f91565b60405180910390f35b6102a760048036038101906102a29190611be5565b610956565b005b6102c360048036038101906102be9190611b1b565b610981565b005b6102df60048036038101906102da9190611aa0565b610997565b005b6102fb60048036038101906102f69190611be5565b6109f9565b6040516103089190611f91565b60405180910390f35b61032b60048036038101906103269190611a15565b610aa0565b6040516103389190611f76565b60405180910390f35b60007f80ac58cd000000000000000000000000000000000000000000000000000000007bffffffffffffffffffffffffffffffffffffffffffffffffffffffff1916827bffffffffffffffffffffffffffffffffffffffffffffffffffffffff1916148061040c57507f5b5e139f000000000000000000000000000000000000000000000000000000007bffffffffffffffffffffffffffffffffffffffffffffffffffffffff1916827bffffffffffffffffffffffffffffffffffffffffffffffffffffffff1916145b8061041c575061041b82610b34565b5b9050919050565b606060008054610432906123b8565b80601f016020809104026020016040519081016040528092919081815260200182805461045e906123b8565b80156104ab5780601f10610480576101008083540402835291602001916104ab565b820191906000526020600020905b81548152906001019060200180831161048e57829003601f168201915b5050505050905090565b60006104c082610b9e565b6104ff576040517f08c379a00000000000000000000000000000000000000000000000000000000081526004016104f6906120f3565b60405180910390fd5b6004600083815260200190815260200160002060009054906101000a900473ffffffffffffffffffffffffffffffffffffffff169050919050565b60006105458261075a565b90508073ffffffffffffffffffffffffffffffffffffffff168373ffffffffffffffffffffffffffffffffffffffff1614156105b6576040517f08c379a00000000000000000000000000000000000000000000000000000000081526004016105ad90612133565b60405180910390fd5b8073ffffffffffffffffffffffffffffffffffffffff166105d5610c0a565b73ffffffffffffffffffffffffffffffffffffffff1614806106045750610603816105fe610c0a565b610aa0565b5b610643576040517f08c379a000000000000000000000000000000000000000000000000000000000815260040161063a90612073565b60405180910390fd5b61064d8383610c12565b505050565b61066361065d610c0a565b82610ccb565b6106a2576040517f08c379a000000000000000000000000000000000000000000000000000000000815260040161069990612153565b60405180910390fd5b6106ad838383610da9565b505050565b6106cd83838360405180602001604052806000815250610997565b505050565b6106e36106dd610c0a565b82610ccb565b610722576040517f08c379a000000000000000000000000000000000000000000000000000000000815260040161071990612173565b60405180910390fd5b61072b81611010565b50565b60005b81811015610755576107428361112d565b808061074d9061241b565b915050610731565b505050565b6000806002600084815260200190815260200160002060009054906101000a900473ffffffffffffffffffffffffffffffffffffffff169050600073ffffffffffffffffffffffffffffffffffffffff168173ffffffffffffffffffffffffffffffffffffffff161415610803576040517f08c379a00000000000000000000000000000000000000000000000000000000081526004016107fa906120b3565b60405180910390fd5b80915050919050565b60008073ffffffffffffffffffffffffffffffffffffffff168273ffffffffffffffffffffffffffffffffffffffff16141561087d576040517f08c379a000000000000000000000000000000000000000000000000000000000815260040161087490612093565b60405180910390fd5b600360008373ffffffffffffffffffffffffffffffffffffffff1673ffffffffffffffffffffffffffffffffffffffff168152602001908152602001600020549050919050565b6060600180546108d3906123b8565b80601f01602080910402602001604051908101604052809291908181526020018280546108ff906123b8565b801561094c5780601f106109215761010080835404028352916020019161094c565b820191906000526020600020905b81548152906001019060200180831161092f57829003601f168201915b5050505050905090565b60005b8181101561097d5761096a3361112d565b80806109759061241b565b915050610959565b5050565b61099361098c610c0a565b8383611153565b5050565b6109a86109a2610c0a565b83610ccb565b6109e7576040517f08c379a00000000000000000000000000000000000000000000000000000000081526004016109de90612153565b60405180910390fd5b6109f3848484846112c0565b50505050565b6060610a0482610b9e565b610a43576040517f08c379a0000000000000000000000000000000000000000000000000000000008152600401610a3a90612113565b60405180910390fd5b6000610a4d61131c565b90506000815111610a6d5760405180602001604052806000815250610a98565b80610a7784611333565b604051602001610a88929190611eeb565b6040516020818303038152906040525b915050919050565b6000600560008473ffffffffffffffffffffffffffffffffffffffff1673ffffffffffffffffffffffffffffffffffffffff16815260200190815260200160002060008373ffffffffffffffffffffffffffffffffffffffff1673ffffffffffffffffffffffffffffffffffffffff16815260200190815260200160002060009054906101000a900460ff16905092915050565b60007f01ffc9a7000000000000000000000000000000000000000000000000000000007bffffffffffffffffffffffffffffffffffffffffffffffffffffffff1916827bffffffffffffffffffffffffffffffffffffffffffffffffffffffff1916149050919050565b60008073ffffffffffffffffffffffffffffffffffffffff166002600084815260200190815260200160002060009054906101000a900473ffffffffffffffffffffffffffffffffffffffff1673ffffffffffffffffffffffffffffffffffffffff1614159050919050565b600033905090565b816004600083815260200190815260200160002060006101000a81548173ffffffffffffffffffffffffffffffffffffffff021916908373ffffffffffffffffffffffffffffffffffffffff160217905550808273ffffffffffffffffffffffffffffffffffffffff16610c858361075a565b73ffffffffffffffffffffffffffffffffffffffff167f8c5be1e5ebec7d5bd14f71427d1e84f3dd0314c0f7b2291e5b200ac8c7c3b92560405160405180910390a45050565b6000610cd682610b9e565b610d15576040517f08c379a0000000000000000000000000000000000000000000000000000000008152600401610d0c90612053565b60405180910390fd5b6000610d208361075a565b90508073ffffffffffffffffffffffffffffffffffffffff168473ffffffffffffffffffffffffffffffffffffffff161480610d625750610d618185610aa0565b5b80610da057508373ffffffffffffffffffffffffffffffffffffffff16610d88846104b5565b73ffffffffffffffffffffffffffffffffffffffff16145b91505092915050565b8273ffffffffffffffffffffffffffffffffffffffff16610dc98261075a565b73ffffffffffffffffffffffffffffffffffffffff1614610e1f576040517f08c379a0000000000000000000000000000000000000000000000000000000008152600401610e1690611fd3565b60405180910390fd5b600073ffffffffffffffffffffffffffffffffffffffff168273ffffffffffffffffffffffffffffffffffffffff161415610e8f576040517f08c379a0000000000000000000000000000000000000000000000000000000008152600401610e8690612013565b60405180910390fd5b610e9a8383836114e0565b610ea5600082610c12565b6001600360008573ffffffffffffffffffffffffffffffffffffffff1673ffffffffffffffffffffffffffffffffffffffff1681526020019081526020016000206000828254610ef591906122ce565b925050819055506001600360008473ffffffffffffffffffffffffffffffffffffffff1673ffffffffffffffffffffffffffffffffffffffff1681526020019081526020016000206000828254610f4c9190612247565b92505081905550816002600083815260200190815260200160002060006101000a81548173ffffffffffffffffffffffffffffffffffffffff021916908373ffffffffffffffffffffffffffffffffffffffff160217905550808273ffffffffffffffffffffffffffffffffffffffff168473ffffffffffffffffffffffffffffffffffffffff167fddf252ad1be2c89b69c2b068fc378daa952ba7f163c4a11628f55a4df523b3ef60405160405180910390a461100b8383836114e5565b505050565b600061101b8261075a565b9050611029816000846114e0565b611034600083610c12565b6001600360008373ffffffffffffffffffffffffffffffffffffffff1673ffffffffffffffffffffffffffffffffffffffff168152602001908152602001600020600082825461108491906122ce565b925050819055506002600083815260200190815260200160002060006101000a81549073ffffffffffffffffffffffffffffffffffffffff021916905581600073ffffffffffffffffffffffffffffffffffffffff168273ffffffffffffffffffffffffffffffffffffffff167fddf252ad1be2c89b69c2b068fc378daa952ba7f163c4a11628f55a4df523b3ef60405160405180910390a4611129816000846114e5565b5050565b600061113960066114ea565b905061114560066114f8565b61114f828261150e565b5050565b8173ffffffffffffffffffffffffffffffffffffffff168373ffffffffffffffffffffffffffffffffffffffff1614156111c2576040517f08c379a00000000000000000000000000000000000000000000000000000000081526004016111b990612033565b60405180910390fd5b80600560008573ffffffffffffffffffffffffffffffffffffffff1673ffffffffffffffffffffffffffffffffffffffff16815260200190815260200160002060008473ffffffffffffffffffffffffffffffffffffffff1673ffffffffffffffffffffffffffffffffffffffff16815260200190815260200160002060006101000a81548160ff0219169083151502179055508173ffffffffffffffffffffffffffffffffffffffff168373ffffffffffffffffffffffffffffffffffffffff167f17307eab39ab6107e8899845ad3d59bd9653f200f220920489ca2b5937696c31836040516112b39190611f76565b60405180910390a3505050565b6112cb848484610da9565b6112d78484848461152c565b611316576040517f08c379a000000000000000000000000000000000000000000000000000000000815260040161130d90611fb3565b60405180910390fd5b50505050565b606060405180602001604052806000815250905090565b6060600082141561137b576040518060400160405280600181526020017f300000000000000000000000000000000000000000000000000000000000000081525090506114db565b600082905060005b600082146113ad5780806113969061241b565b915050600a826113a6919061229d565b9150611383565b60008167ffffffffffffffff8111156113ef577f4e487b7100000000000000000000000000000000000000000000000000000000600052604160045260246000fd5b6040519080825280601f01601f1916602001820160405280156114215781602001600182028036833780820191505090505b5090505b600085146114d45760018261143a91906122ce565b9150600a856114499190612464565b60306114559190612247565b60f81b818381518110611491577f4e487b7100000000000000000000000000000000000000000000000000000000600052603260045260246000fd5b60200101907effffffffffffffffffffffffffffffffffffffffffffffffffffffffffffff1916908160001a905350600a856114cd919061229d565b9450611425565b8093505050505b919050565b505050565b505050565b600081600001549050919050565b6001816000016000828254019250508190555050565b6115288282604051806020016040528060008152506116c3565b5050565b600061154d8473ffffffffffffffffffffffffffffffffffffffff1661171e565b156116b6578373ffffffffffffffffffffffffffffffffffffffff1663150b7a02611576610c0a565b8786866040518563ffffffff1660e01b81526004016115989493929190611f2a565b602060405180830381600087803b1580156115b257600080fd5b505af19250505080156115e357506040513d601f19601f820116820180604052508101906115e09190611bbc565b60015b611666573d8060008114611613576040519150601f19603f3d011682016040523d82523d6000602084013e611618565b606091505b5060008151141561165e576040517f08c379a000000000000000000000000000000000000000000000000000000000815260040161165590611fb3565b60405180910390fd5b805181602001fd5b63150b7a0260e01b7bffffffffffffffffffffffffffffffffffffffffffffffffffffffff1916817bffffffffffffffffffffffffffffffffffffffffffffffffffffffff1916149150506116bb565b600190505b949350505050565b6116cd8383611741565b6116da600084848461152c565b611719576040517f08c379a000000000000000000000000000000000000000000000000000000000815260040161171090611fb3565b60405180910390fd5b505050565b6000808273ffffffffffffffffffffffffffffffffffffffff163b119050919050565b600073ffffffffffffffffffffffffffffffffffffffff168273ffffffffffffffffffffffffffffffffffffffff1614156117b1576040517f08c379a00000000000000000000000000000000000000000000000000000000081526004016117a8906120d3565b60405180910390fd5b6117ba81610b9e565b156117fa576040517f08c379a00000000000000000000000000000000000000000000000000000000081526004016117f190611ff3565b60405180910390fd5b611806600083836114e0565b6001600360008473ffffffffffffffffffffffffffffffffffffffff1673ffffffffffffffffffffffffffffffffffffffff16815260200190815260200160002060008282546118569190612247565b92505081905550816002600083815260200190815260200160002060006101000a81548173ffffffffffffffffffffffffffffffffffffffff021916908373ffffffffffffffffffffffffffffffffffffffff160217905550808273ffffffffffffffffffffffffffffffffffffffff16600073ffffffffffffffffffffffffffffffffffffffff167fddf252ad1be2c89b69c2b068fc378daa952ba7f163c4a11628f55a4df523b3ef60405160405180910390a4611917600083836114e5565b5050565b600061192e611929846121d3565b6121ae565b90508281526020810184848401111561194657600080fd5b611951848285612376565b509392505050565b60008135905061196881612991565b92915050565b60008135905061197d816129a8565b92915050565b600081359050611992816129bf565b92915050565b6000815190506119a7816129bf565b92915050565b600082601f8301126119be57600080fd5b81356119ce84826020860161191b565b91505092915050565b6000813590506119e6816129d6565b92915050565b6000602082840312156119fe57600080fd5b6000611a0c84828501611959565b91505092915050565b60008060408385031215611a2857600080fd5b6000611a3685828601611959565b9250506020611a4785828601611959565b9150509250929050565b600080600060608486031215611a6657600080fd5b6000611a7486828701611959565b9350506020611a8586828701611959565b9250506040611a96868287016119d7565b9150509250925092565b60008060008060808587031215611ab657600080fd5b6000611ac487828801611959565b9450506020611ad587828801611959565b9350506040611ae6878288016119d7565b925050606085013567ffffffffffffffff811115611b0357600080fd5b611b0f878288016119ad565b91505092959194509250565b60008060408385031215611b2e57600080fd5b6000611b3c85828601611959565b9250506020611b4d8582860161196e565b9150509250929050565b60008060408385031215611b6a57600080fd5b6000611b7885828601611959565b9250506020611b89858286016119d7565b9150509250929050565b600060208284031215611ba557600080fd5b6000611bb384828501611983565b91505092915050565b600060208284031215611bce57600080fd5b6000611bdc84828501611998565b91505092915050565b600060208284031215611bf757600080fd5b6000611c05848285016119d7565b91505092915050565b611c1781612302565b82525050565b611c2681612314565b82525050565b6000611c3782612204565b611c41818561221a565b9350611c51818560208601612385565b611c5a81612551565b840191505092915050565b6000611c708261220f565b611c7a818561222b565b9350611c8a818560208601612385565b611c9381612551565b840191505092915050565b6000611ca98261220f565b611cb3818561223c565b9350611cc3818560208601612385565b80840191505092915050565b6000611cdc60328361222b565b9150611ce782612562565b604082019050919050565b6000611cff60258361222b565b9150611d0a826125b1565b604082019050919050565b6000611d22601c8361222b565b9150611d2d82612600565b602082019050919050565b6000611d4560248361222b565b9150611d5082612629565b604082019050919050565b6000611d6860198361222b565b9150611d7382612678565b602082019050919050565b6000611d8b602c8361222b565b9150611d96826126a1565b604082019050919050565b6000611dae60388361222b565b9150611db9826126f0565b604082019050919050565b6000611dd1602a8361222b565b9150611ddc8261273f565b604082019050919050565b6000611df460298361222b565b9150611dff8261278e565b604082019050919050565b6000611e1760208361222b565b9150611e22826127dd565b602082019050919050565b6000611e3a602c8361222b565b9150611e4582612806565b604082019050919050565b6000611e5d602f8361222b565b9150611e6882612855565b604082019050919050565b6000611e8060218361222b565b9150611e8b826128a4565b604082019050919050565b6000611ea360318361222b565b9150611eae826128f3565b604082019050919050565b6000611ec660308361222b565b9150611ed182612942565b604082019050919050565b611ee58161236c565b82525050565b6000611ef78285611c9e565b9150611f038284611c9e565b91508190509392505050565b6000602082019050611f246000830184611c0e565b92915050565b6000608082019050611f3f6000830187611c0e565b611f4c6020830186611c0e565b611f596040830185611edc565b8181036060830152611f6b8184611c2c565b905095945050505050565b6000602082019050611f8b6000830184611c1d565b92915050565b60006020820190508181036000830152611fab8184611c65565b905092915050565b60006020820190508181036000830152611fcc81611ccf565b9050919050565b60006020820190508181036000830152611fec81611cf2565b9050919050565b6000602082019050818103600083015261200c81611d15565b9050919050565b6000602082019050818103600083015261202c81611d38565b9050919050565b6000602082019050818103600083015261204c81611d5b565b9050919050565b6000602082019050818103600083015261206c81611d7e565b9050919050565b6000602082019050818103600083015261208c81611da1565b9050919050565b600060208201905081810360008301526120ac81611dc4565b9050919050565b600060208201905081810360008301526120cc81611de7565b9050919050565b600060208201905081810360008301526120ec81611e0a565b9050919050565b6000602082019050818103600083015261210c81611e2d565b9050919050565b6000602082019050818103600083015261212c81611e50565b9050919050565b6000602082019050818103600083015261214c81611e73565b9050919050565b6000602082019050818103600083015261216c81611e96565b9050919050565b6000602082019050818103600083015261218c81611eb9565b9050919050565b60006020820190506121a86000830184611edc565b92915050565b60006121b86121c9565b90506121c482826123ea565b919050565b6000604051905090565b600067ffffffffffffffff8211156121ee576121ed612522565b5b6121f782612551565b9050602081019050919050565b600081519050919050565b600081519050919050565b600082825260208201905092915050565b600082825260208201905092915050565b600081905092915050565b60006122528261236c565b915061225d8361236c565b9250827fffffffffffffffffffffffffffffffffffffffffffffffffffffffffffffffff0382111561229257612291612495565b5b828201905092915050565b60006122a88261236c565b91506122b38361236c565b9250826122c3576122c26124c4565b5b828204905092915050565b60006122d98261236c565b91506122e48361236c565b9250828210156122f7576122f6612495565b5b828203905092915050565b600061230d8261234c565b9050919050565b60008115159050919050565b60007fffffffff0000000000000000000000000000000000000000000000000000000082169050919050565b600073ffffffffffffffffffffffffffffffffffffffff82169050919050565b6000819050919050565b82818337600083830152505050565b60005b838110156123a3578082015181840152602081019050612388565b838111156123b2576000848401525b50505050565b600060028204905060018216806123d057607f821691505b602082108114156123e4576123e36124f3565b5b50919050565b6123f382612551565b810181811067ffffffffffffffff8211171561241257612411612522565b5b80604052505050565b60006124268261236c565b91507fffffffffffffffffffffffffffffffffffffffffffffffffffffffffffffffff82141561245957612458612495565b5b600182019050919050565b600061246f8261236c565b915061247a8361236c565b92508261248a576124896124c4565b5b828206905092915050565b7f4e487b7100000000000000000000000000000000000000000000000000000000600052601160045260246000fd5b7f4e487b7100000000000000000000000000000000000000000000000000000000600052601260045260246000fd5b7f4e487b7100000000000000000000000000000000000000000000000000000000600052602260045260246000fd5b7f4e487b7100000000000000000000000000000000000000000000000000000000600052604160045260246000fd5b6000601f19601f8301169050919050565b7f4552433732313a207472616e7366657220746f206e6f6e20455243373231526560008201527f63656976657220696d706c656d656e7465720000000000000000000000000000602082015250565b7f4552433732313a207472616e736665722066726f6d20696e636f72726563742060008201527f6f776e6572000000000000000000000000000000000000000000000000000000602082015250565b7f4552433732313a20746f6b656e20616c7265616479206d696e74656400000000600082015250565b7f4552433732313a207472616e7366657220746f20746865207a65726f2061646460008201527f7265737300000000000000000000000000000000000000000000000000000000602082015250565b7f4552433732313a20617070726f766520746f2063616c6c657200000000000000600082015250565b7f4552433732313a206f70657261746f7220717565727920666f72206e6f6e657860008201527f697374656e7420746f6b656e0000000000000000000000000000000000000000602082015250565b7f4552433732313a20617070726f76652063616c6c6572206973206e6f74206f7760008201527f6e6572206e6f7220617070726f76656420666f7220616c6c0000000000000000602082015250565b7f4552433732313a2062616c616e636520717565727920666f7220746865207a6560008201527f726f206164647265737300000000000000000000000000000000000000000000602082015250565b7f4552433732313a206f776e657220717565727920666f72206e6f6e657869737460008201527f656e7420746f6b656e0000000000000000000000000000000000000000000000602082015250565b7f4552433732313a206d696e7420746f20746865207a65726f2061646472657373600082015250565b7f4552433732313a20617070726f76656420717565727920666f72206e6f6e657860008201527f697374656e7420746f6b656e0000000000000000000000000000000000000000602082015250565b7f4552433732314d657461646174613a2055524920717565727920666f72206e6f60008201527f6e6578697374656e7420746f6b656e0000000000000000000000000000000000602082015250565b7f4552433732313a20617070726f76616c20746f2063757272656e74206f776e6560008201527f7200000000000000000000000000000000000000000000000000000000000000602082015250565b7f4552433732313a207472616e736665722063616c6c6572206973206e6f74206f60008201527f776e6572206e6f7220617070726f766564000000000000000000000000000000602082015250565b7f4552433732314275726e61626c653a2063616c6c6572206973206e6f74206f7760008201527f6e6572206e6f7220617070726f76656400000000000000000000000000000000602082015250565b61299a81612302565b81146129a557600080fd5b50565b6129b181612314565b81146129bc57600080fd5b50565b6129c881612320565b81146129d357600080fd5b50565b6129df8161236c565b81146129ea57600080fd5b5056fea26469706673582212200c17a3c115317978bb124a6b5a566d812be3dab7ee8e48aa0d5a707f28ddd8d264736f6c63430008010033",
  "linkReferences": {},
  "deployedLinkReferences": {}
}