{
  "_format": "hh-sol-artifact-1",
  "contractName": "StarlistLootboxBetaTest",
  "sourceName": "contracts/Testing.sol",
  "abi": [
    {
      "inputs": [
        {
          "internalType": "bytes32[]",
          "name": "_merkleProof",
          "type": "bytes32[]"
        }
      ],
      "name": "claim",
      "outputs": [],
      "stateMutability": "nonpayable",
      "type": "function"
    },
    {
      "inputs": [
        {
          "internalType": "address",
          "name": "",
          "type": "address"
        }
      ],
      "name": "claimed",
      "outputs": [
        {
          "internalType": "uint8",
          "name": "",
          "type": "uint8"
        }
      ],
      "stateMutability": "view",
      "type": "function"
    },
    {
      "inputs": [
        {
          "internalType": "address",
          "name": "_addr",
          "type": "address"
        }
      ],
      "name": "isAdmin",
      "outputs": [
        {
          "internalType": "bool",
          "name": "",
          "type": "bool"
        }
      ],
      "stateMutability": "view",
      "type": "function"
    },
    {
      "inputs": [],
      "name": "owner",
      "outputs": [
        {
          "internalType": "address",
          "name": "",
          "type": "address"
        }
      ],
      "stateMutability": "view",
      "type": "function"
    },
    {
      "inputs": [
        {
          "internalType": "address",
          "name": "a",
          "type": "address"
        }
      ],
      "name": "resetClaimed",
      "outputs": [],
      "stateMutability": "nonpayable",
      "type": "function"
    },
    {
      "inputs": [
        {
          "internalType": "bytes32",
          "name": "rootOne",
          "type": "bytes32"
        },
        {
          "internalType": "bytes32",
          "name": "rootTwo",
          "type": "bytes32"
        }
      ],
      "name": "setMerkleRoots",
      "outputs": [],
      "stateMutability": "nonpayable",
      "type": "function"
    },
    {
      "inputs": [
        {
          "internalType": "uint16[]",
          "name": "ids",
          "type": "uint16[]"
        }
      ],
      "name": "setPoetTokenIDs",
      "outputs": [],
      "stateMutability": "nonpayable",
      "type": "function"
    },
    {
      "inputs": [
        {
          "internalType": "address",
          "name": "addr",
          "type": "address"
        }
      ],
      "name": "setVaultAddress",
      "outputs": [],
      "stateMutability": "nonpayable",
      "type": "function"
    },
    {
      "inputs": [
        {
          "internalType": "address[]",
          "name": "accounts",
          "type": "address[]"
        }
      ],
      "name": "toggleAdmins",
      "outputs": [],
      "stateMutability": "nonpayable",
      "type": "function"
    },
    {
      "inputs": [
        {
          "internalType": "address",
          "name": "newOwner",
          "type": "address"
        }
      ],
      "name": "transferOwnership",
      "outputs": [],
      "stateMutability": "nonpayable",
      "type": "function"
    }
  ],
  "bytecode": "0x60806040526040518060c00160405280600060ff168152602001600160ff168152602001600260ff168152602001600360ff168152602001600460ff168152602001600560ff1681525060089060066200005b929190620000b0565b503480156200006957600080fd5b50336000806101000a81548173ffffffffffffffffffffffffffffffffffffffff021916908373ffffffffffffffffffffffffffffffffffffffff1602179055506200017f565b82805482825590600052602060002090600f016010900481019282156200014d5791602002820160005b838211156200011b57835183826101000a81548161ffff021916908360ff1602179055509260200192600201602081600101049283019260010302620000da565b80156200014b5782816101000a81549061ffff02191690556002016020816001010492830192600103026200011b565b505b5090506200015c919062000160565b5090565b5b808211156200017b57600081600090555060010162000161565b5090565b6115ae806200018f6000396000f3fe608060405234801561001057600080fd5b506004361061009e5760003560e01c80638da5cb5b116100665780638da5cb5b146101435780639a48eb5114610161578063b391c5081461017d578063c884ef8314610199578063f2fde38b146101c95761009e565b8063192eb70f146100a357806324d7806c146100bf5780633184f7ab146100ef57806385535cc51461010b57806387090e1714610127575b600080fd5b6100bd60048036038101906100b89190610edd565b6101e5565b005b6100d960048036038101906100d49190610edd565b610289565b6040516100e691906111e7565b60405180910390f35b61010960048036038101906101049190610f90565b610335565b005b61012560048036038101906101209190610edd565b610393565b005b610141600480360381019061013c9190610f06565b61041f565b005b61014b610672565b604051610158919061113d565b60405180910390f35b61017b60048036038101906101769190610fd5565b610696565b005b61019760048036038101906101929190610f4b565b6106f0565b005b6101b360048036038101906101ae9190610edd565b610b50565b6040516101c09190611282565b60405180910390f35b6101e360048036038101906101de9190610edd565b610b70565b005b6101ee33610289565b61022d576040517f08c379a000000000000000000000000000000000000000000000000000000000815260040161022490611202565b60405180910390fd5b6000600560008373ffffffffffffffffffffffffffffffffffffffff1673ffffffffffffffffffffffffffffffffffffffff16815260200190815260200160002060006101000a81548160ff021916908360ff16021790555050565b60008173ffffffffffffffffffffffffffffffffffffffff1660008054906101000a900473ffffffffffffffffffffffffffffffffffffffff1673ffffffffffffffffffffffffffffffffffffffff16148061032e5750600160008373ffffffffffffffffffffffffffffffffffffffff1673ffffffffffffffffffffffffffffffffffffffff16815260200190815260200160002060009054906101000a900460ff165b9050919050565b61033e33610289565b61037d576040517f08c379a000000000000000000000000000000000000000000000000000000000815260040161037490611202565b60405180910390fd5b81816008919061038e929190610d0a565b505050565b61039c33610289565b6103db576040517f08c379a00000000000000000000000000000000000000000000000000000000081526004016103d290611202565b60405180910390fd5b80600460006101000a81548173ffffffffffffffffffffffffffffffffffffffff021916908373ffffffffffffffffffffffffffffffffffffffff16021790555050565b61042833610289565b610467576040517f08c379a000000000000000000000000000000000000000000000000000000000815260040161045e90611202565b60405180910390fd5b60005b8282905081101561066d57600160008484848181106104b2577f4e487b7100000000000000000000000000000000000000000000000000000000600052603260045260246000fd5b90506020020160208101906104c79190610edd565b73ffffffffffffffffffffffffffffffffffffffff1673ffffffffffffffffffffffffffffffffffffffff16815260200190815260200160002060009054906101000a900460ff16156105b55760016000848484818110610551577f4e487b7100000000000000000000000000000000000000000000000000000000600052603260045260246000fd5b90506020020160208101906105669190610edd565b73ffffffffffffffffffffffffffffffffffffffff1673ffffffffffffffffffffffffffffffffffffffff16815260200190815260200160002060006101000a81549060ff021916905561065a565b60018060008585858181106105f3577f4e487b7100000000000000000000000000000000000000000000000000000000600052603260045260246000fd5b90506020020160208101906106089190610edd565b73ffffffffffffffffffffffffffffffffffffffff1673ffffffffffffffffffffffffffffffffffffffff16815260200190815260200160002060006101000a81548160ff0219169083151502179055505b808061066590611384565b91505061046a565b505050565b60008054906101000a900473ffffffffffffffffffffffffffffffffffffffff1681565b61069f33610289565b6106de576040517f08c379a00000000000000000000000000000000000000000000000000000000081526004016106d590611202565b60405180910390fd5b81600681905550806007819055505050565b6000600560003373ffffffffffffffffffffffffffffffffffffffff1673ffffffffffffffffffffffffffffffffffffffff16815260200190815260200160002060009054906101000a900460ff1660ff1614610782576040517f08c379a000000000000000000000000000000000000000000000000000000000815260040161077990611222565b60405180910390fd5b600560003373ffffffffffffffffffffffffffffffffffffffff1673ffffffffffffffffffffffffffffffffffffffff168152602001908152602001600020600081819054906101000a900460ff16809291906107de906113cd565b91906101000a81548160ff021916908360ff1602179055505060003360405160200161080a9190611122565b604051602081830303815290604052805190602001209050610870838380806020026020016040519081016040528093929190818152602001838360200280828437600081840152601f19601f8201169050808301925050505050505060065483610c41565b1561093057600260009054906101000a900473ffffffffffffffffffffffffffffffffffffffff1673ffffffffffffffffffffffffffffffffffffffff1663f242432a600460009054906101000a900473ffffffffffffffffffffffffffffffffffffffff16336001806040518563ffffffff1660e01b81526004016108f99493929190611158565b600060405180830381600087803b15801561091357600080fd5b505af1158015610927573d6000803e3d6000fd5b50505050610b4b565b61097e838380806020026020016040519081016040528093929190818152602001838360200280828437600081840152601f19601f8201169050808301925050505050505060075483610c41565b6109bd576040517f08c379a00000000000000000000000000000000000000000000000000000000081526004016109b490611262565b60405180910390fd5b6000600860016008805490506109d391906112bf565b81548110610a0a577f4e487b7100000000000000000000000000000000000000000000000000000000600052603260045260246000fd5b90600052602060002090601091828204019190066002029054906101000a900461ffff1690506008805480610a68577f4e487b7100000000000000000000000000000000000000000000000000000000600052603160045260246000fd5b60019003818190600052602060002090601091828204019190066002026101000a81549061ffff02191690559055600360009054906101000a900473ffffffffffffffffffffffffffffffffffffffff1673ffffffffffffffffffffffffffffffffffffffff166342842e0e600460009054906101000a900473ffffffffffffffffffffffffffffffffffffffff1633846040518463ffffffff1660e01b8152600401610b17939291906111b0565b600060405180830381600087803b158015610b3157600080fd5b505af1158015610b45573d6000803e3d6000fd5b50505050505b505050565b60056020528060005260406000206000915054906101000a900460ff1681565b60008054906101000a900473ffffffffffffffffffffffffffffffffffffffff1673ffffffffffffffffffffffffffffffffffffffff163373ffffffffffffffffffffffffffffffffffffffff1614610bfe576040517f08c379a0000000000000000000000000000000000000000000000000000000008152600401610bf590611242565b60405180910390fd5b806000806101000a81548173ffffffffffffffffffffffffffffffffffffffff021916908373ffffffffffffffffffffffffffffffffffffffff16021790555050565b600082610c4e8584610c58565b1490509392505050565b60008082905060005b8451811015610ce8576000858281518110610ca5577f4e487b7100000000000000000000000000000000000000000000000000000000600052603260045260246000fd5b60200260200101519050808311610cc757610cc08382610cf3565b9250610cd4565b610cd18184610cf3565b92505b508080610ce090611384565b915050610c61565b508091505092915050565b600082600052816020526040600020905092915050565b82805482825590600052602060002090600f01601090048101928215610da75791602002820160005b83821115610d7757833561ffff1683826101000a81548161ffff021916908361ffff1602179055509260200192600201602081600101049283019260010302610d33565b8015610da55782816101000a81549061ffff0219169055600201602081600101049283019260010302610d77565b505b509050610db49190610db8565b5090565b5b80821115610dd1576000816000905550600101610db9565b5090565b600081359050610de48161154a565b92915050565b60008083601f840112610dfc57600080fd5b8235905067ffffffffffffffff811115610e1557600080fd5b602083019150836020820283011115610e2d57600080fd5b9250929050565b60008083601f840112610e4657600080fd5b8235905067ffffffffffffffff811115610e5f57600080fd5b602083019150836020820283011115610e7757600080fd5b9250929050565b60008083601f840112610e9057600080fd5b8235905067ffffffffffffffff811115610ea957600080fd5b602083019150836020820283011115610ec157600080fd5b9250929050565b600081359050610ed781611561565b92915050565b600060208284031215610eef57600080fd5b6000610efd84828501610dd5565b91505092915050565b60008060208385031215610f1957600080fd5b600083013567ffffffffffffffff811115610f3357600080fd5b610f3f85828601610dea565b92509250509250929050565b60008060208385031215610f5e57600080fd5b600083013567ffffffffffffffff811115610f7857600080fd5b610f8485828601610e34565b92509250509250929050565b60008060208385031215610fa357600080fd5b600083013567ffffffffffffffff811115610fbd57600080fd5b610fc985828601610e7e565b92509250509250929050565b60008060408385031215610fe857600080fd5b6000610ff685828601610ec8565b925050602061100785828601610ec8565b9150509250929050565b61101a816112f3565b82525050565b61103161102c826112f3565b6113f7565b82525050565b61104081611305565b82525050565b61104f81611360565b82525050565b60006110626027836112ae565b915061106d82611457565b604082019050919050565b6000611085601f836112ae565b9150611090826114a6565b602082019050919050565b60006110a8602a836112ae565b91506110b3826114cf565b604082019050919050565b60006110cb60008361129d565b91506110d68261151e565b600082019050919050565b60006110ee6014836112ae565b91506110f982611521565b602082019050919050565b61110d81611372565b82525050565b61111c81611353565b82525050565b600061112e8284611020565b60148201915081905092915050565b60006020820190506111526000830184611011565b92915050565b600060a08201905061116d6000830187611011565b61117a6020830186611011565b6111876040830185611046565b6111946060830184611046565b81810360808301526111a5816110be565b905095945050505050565b60006060820190506111c56000830186611011565b6111d26020830185611011565b6111df6040830184611104565b949350505050565b60006020820190506111fc6000830184611037565b92915050565b6000602082019050818103600083015261121b81611055565b9050919050565b6000602082019050818103600083015261123b81611078565b9050919050565b6000602082019050818103600083015261125b8161109b565b9050919050565b6000602082019050818103600083015261127b816110e1565b9050919050565b60006020820190506112976000830184611113565b92915050565b600082825260208201905092915050565b600082825260208201905092915050565b60006112ca82611349565b91506112d583611349565b9250828210156112e8576112e761141b565b5b828203905092915050565b60006112fe82611329565b9050919050565b60008115159050919050565b6000819050919050565b600061ffff82169050919050565b600073ffffffffffffffffffffffffffffffffffffffff82169050919050565b6000819050919050565b600060ff82169050919050565b600061136b82611349565b9050919050565b600061137d8261131b565b9050919050565b600061138f82611349565b91507fffffffffffffffffffffffffffffffffffffffffffffffffffffffffffffffff8214156113c2576113c161141b565b5b600182019050919050565b60006113d882611353565b915060ff8214156113ec576113eb61141b565b5b600182019050919050565b600061140282611409565b9050919050565b60006114148261144a565b9050919050565b7f4e487b7100000000000000000000000000000000000000000000000000000000600052601160045260246000fd5b60008160601b9050919050565b7f41646d696e50726976696c656765733a2063616c6c6572206973206e6f74206160008201527f6e2061646d696e00000000000000000000000000000000000000000000000000602082015250565b7f546869732077616c6c65742068617320616c726561647920636c61696d656400600082015250565b7f4f6e6c7920636f6e7472616374206f776e65722063616e207472616e7366657260008201527f206f776e65727368697000000000000000000000000000000000000000000000602082015250565b50565b7f496e76616c6964204d65726b6c652070726f6f66000000000000000000000000600082015250565b611553816112f3565b811461155e57600080fd5b50565b61156a81611311565b811461157557600080fd5b5056fea264697066735822122012965ba1b47597d6b2807e7a30386085bc91016f99c180fdcae5ea3c9c55794064736f6c63430008010033",
  "linkReferences": {},
  "deployedLinkReferences": {}
}