{
  "_format": "hh-sol-artifact-1",
  "contractName": "MyToken",
  "sourceName": "contracts/SampleERC1155.sol",
  "abi": [
    {
      "inputs": [],
      "stateMutability": "nonpayable",
      "type": "constructor"
    },
    {
      "anonymous": false,
      "inputs": [
        {
          "indexed": true,
          "internalType": "address",
          "name": "account",
          "type": "address"
        },
        {
          "indexed": true,
          "internalType": "address",
          "name": "operator",
          "type": "address"
        },
        {
          "indexed": false,
          "internalType": "bool",
          "name": "approved",
          "type": "bool"
        }
      ],
      "name": "ApprovalForAll",
      "type": "event"
    },
    {
      "anonymous": false,
      "inputs": [
        {
          "indexed": true,
          "internalType": "address",
          "name": "operator",
          "type": "address"
        },
        {
          "indexed": true,
          "internalType": "address",
          "name": "from",
          "type": "address"
        },
        {
          "indexed": true,
          "internalType": "address",
          "name": "to",
          "type": "address"
        },
        {
          "indexed": false,
          "internalType": "uint256[]",
          "name": "ids",
          "type": "uint256[]"
        },
        {
          "indexed": false,
          "internalType": "uint256[]",
          "name": "values",
          "type": "uint256[]"
        }
      ],
      "name": "TransferBatch",
      "type": "event"
    },
    {
      "anonymous": false,
      "inputs": [
        {
          "indexed": true,
          "internalType": "address",
          "name": "operator",
          "type": "address"
        },
        {
          "indexed": true,
          "internalType": "address",
          "name": "from",
          "type": "address"
        },
        {
          "indexed": true,
          "internalType": "address",
          "name": "to",
          "type": "address"
        },
        {
          "indexed": false,
          "internalType": "uint256",
          "name": "id",
          "type": "uint256"
        },
        {
          "indexed": false,
          "internalType": "uint256",
          "name": "value",
          "type": "uint256"
        }
      ],
      "name": "TransferSingle",
      "type": "event"
    },
    {
      "anonymous": false,
      "inputs": [
        {
          "indexed": false,
          "internalType": "string",
          "name": "value",
          "type": "string"
        },
        {
          "indexed": true,
          "internalType": "uint256",
          "name": "id",
          "type": "uint256"
        }
      ],
      "name": "URI",
      "type": "event"
    },
    {
      "inputs": [
        {
          "internalType": "address",
          "name": "account",
          "type": "address"
        },
        {
          "internalType": "uint256",
          "name": "id",
          "type": "uint256"
        }
      ],
      "name": "balanceOf",
      "outputs": [
        {
          "internalType": "uint256",
          "name": "",
          "type": "uint256"
        }
      ],
      "stateMutability": "view",
      "type": "function"
    },
    {
      "inputs": [
        {
          "internalType": "address[]",
          "name": "accounts",
          "type": "address[]"
        },
        {
          "internalType": "uint256[]",
          "name": "ids",
          "type": "uint256[]"
        }
      ],
      "name": "balanceOfBatch",
      "outputs": [
        {
          "internalType": "uint256[]",
          "name": "",
          "type": "uint256[]"
        }
      ],
      "stateMutability": "view",
      "type": "function"
    },
    {
      "inputs": [
        {
          "internalType": "address",
          "name": "account",
          "type": "address"
        },
        {
          "internalType": "uint256",
          "name": "id",
          "type": "uint256"
        },
        {
          "internalType": "uint256",
          "name": "value",
          "type": "uint256"
        }
      ],
      "name": "burn",
      "outputs": [],
      "stateMutability": "nonpayable",
      "type": "function"
    },
    {
      "inputs": [
        {
          "internalType": "address",
          "name": "account",
          "type": "address"
        },
        {
          "internalType": "uint256[]",
          "name": "ids",
          "type": "uint256[]"
        },
        {
          "internalType": "uint256[]",
          "name": "values",
          "type": "uint256[]"
        }
      ],
      "name": "burnBatch",
      "outputs": [],
      "stateMutability": "nonpayable",
      "type": "function"
    },
    {
      "inputs": [
        {
          "internalType": "address",
          "name": "account",
          "type": "address"
        },
        {
          "internalType": "address",
          "name": "operator",
          "type": "address"
        }
      ],
      "name": "isApprovedForAll",
      "outputs": [
        {
          "internalType": "bool",
          "name": "",
          "type": "bool"
        }
      ],
      "stateMutability": "view",
      "type": "function"
    },
    {
      "inputs": [
        {
          "internalType": "uint256",
          "name": "tokenID",
          "type": "uint256"
        },
        {
          "internalType": "uint256",
          "name": "amount",
          "type": "uint256"
        }
      ],
      "name": "mint",
      "outputs": [],
      "stateMutability": "nonpayable",
      "type": "function"
    },
    {
      "inputs": [
        {
          "internalType": "uint256[]",
          "name": "ids",
          "type": "uint256[]"
        },
        {
          "internalType": "uint256[]",
          "name": "amounts",
          "type": "uint256[]"
        }
      ],
      "name": "mintBatch",
      "outputs": [],
      "stateMutability": "nonpayable",
      "type": "function"
    },
    {
      "inputs": [
        {
          "internalType": "address",
          "name": "recipient",
          "type": "address"
        },
        {
          "internalType": "uint256[]",
          "name": "ids",
          "type": "uint256[]"
        },
        {
          "internalType": "uint256[]",
          "name": "amounts",
          "type": "uint256[]"
        }
      ],
      "name": "mintBatchTo",
      "outputs": [],
      "stateMutability": "nonpayable",
      "type": "function"
    },
    {
      "inputs": [
        {
          "internalType": "address",
          "name": "recipient",
          "type": "address"
        },
        {
          "internalType": "uint256",
          "name": "tokenID",
          "type": "uint256"
        },
        {
          "internalType": "uint256",
          "name": "amount",
          "type": "uint256"
        }
      ],
      "name": "mintTo",
      "outputs": [],
      "stateMutability": "nonpayable",
      "type": "function"
    },
    {
      "inputs": [
        {
          "internalType": "address",
          "name": "from",
          "type": "address"
        },
        {
          "internalType": "address",
          "name": "to",
          "type": "address"
        },
        {
          "internalType": "uint256[]",
          "name": "ids",
          "type": "uint256[]"
        },
        {
          "internalType": "uint256[]",
          "name": "amounts",
          "type": "uint256[]"
        },
        {
          "internalType": "bytes",
          "name": "data",
          "type": "bytes"
        }
      ],
      "name": "safeBatchTransferFrom",
      "outputs": [],
      "stateMutability": "nonpayable",
      "type": "function"
    },
    {
      "inputs": [
        {
          "internalType": "address",
          "name": "from",
          "type": "address"
        },
        {
          "internalType": "address",
          "name": "to",
          "type": "address"
        },
        {
          "internalType": "uint256",
          "name": "id",
          "type": "uint256"
        },
        {
          "internalType": "uint256",
          "name": "amount",
          "type": "uint256"
        },
        {
          "internalType": "bytes",
          "name": "data",
          "type": "bytes"
        }
      ],
      "name": "safeTransferFrom",
      "outputs": [],
      "stateMutability": "nonpayable",
      "type": "function"
    },
    {
      "inputs": [
        {
          "internalType": "address",
          "name": "operator",
          "type": "address"
        },
        {
          "internalType": "bool",
          "name": "approved",
          "type": "bool"
        }
      ],
      "name": "setApprovalForAll",
      "outputs": [],
      "stateMutability": "nonpayable",
      "type": "function"
    },
    {
      "inputs": [
        {
          "internalType": "bytes4",
          "name": "interfaceId",
          "type": "bytes4"
        }
      ],
      "name": "supportsInterface",
      "outputs": [
        {
          "internalType": "bool",
          "name": "",
          "type": "bool"
        }
      ],
      "stateMutability": "view",
      "type": "function"
    },
    {
      "inputs": [
        {
          "internalType": "uint256",
          "name": "",
          "type": "uint256"
        }
      ],
      "name": "uri",
      "outputs": [
        {
          "internalType": "string",
          "name": "",
          "type": "string"
        }
      ],
      "stateMutability": "view",
      "type": "function"
    }
  ],
  "bytecode": "0x60806040523480156200001157600080fd5b506040518060200160405280600081525062000033816200003a60201b60201c565b506200016b565b80600290805190602001906200005292919062000056565b5050565b828054620000649062000106565b90600052602060002090601f016020900481019282620000885760008555620000d4565b82601f10620000a357805160ff1916838001178555620000d4565b82800160010185558215620000d4579182015b82811115620000d3578251825591602001919060010190620000b6565b5b509050620000e39190620000e7565b5090565b5b8082111562000102576000816000905550600101620000e8565b5090565b600060028204905060018216806200011f57607f821691505b602082108114156200013657620001356200013c565b5b50919050565b7f4e487b7100000000000000000000000000000000000000000000000000000000600052602260045260246000fd5b6135fc806200017b6000396000f3fe608060405234801561001057600080fd5b50600436106100e95760003560e01c80634e1273f41161008c578063d351cfdc11610066578063d351cfdc14610256578063e985e9c514610272578063f242432a146102a2578063f5298aca146102be576100e9565b80634e1273f4146101ee5780636b20c4541461021e578063a22cb4651461023a576100e9565b80631b2ef1ca116100c85780631b2ef1ca1461017e5780632baf2acb1461019a5780632eb2c2d6146101b65780633512639c146101d2576100e9565b8062fdd58e146100ee57806301ffc9a71461011e5780630e89341c1461014e575b600080fd5b610108600480360381019061010391906124ec565b6102da565b6040516101159190612ce9565b60405180910390f35b6101386004803603810190610133919061264f565b6103a3565b6040516101459190612b0c565b60405180910390f35b610168600480360381019061016391906126a1565b610485565b6040516101759190612b27565b60405180910390f35b610198600480360381019061019391906126ca565b610519565b005b6101b460048036038101906101af9190612528565b610538565b005b6101d060048036038101906101cb91906122e3565b610558565b005b6101ec60048036038101906101e79190612431565b6105f9565b005b61020860048036038101906102039190612577565b610619565b6040516102159190612ab3565b60405180910390f35b61023860048036038101906102339190612431565b6107ca565b005b610254600480360381019061024f91906124b0565b610867565b005b610270600480360381019061026b91906125e3565b61087d565b005b61028c600480360381019061028791906122a7565b61089c565b6040516102999190612b0c565b60405180910390f35b6102bc60048036038101906102b791906123a2565b610930565b005b6102d860048036038101906102d39190612528565b6109d1565b005b60008073ffffffffffffffffffffffffffffffffffffffff168373ffffffffffffffffffffffffffffffffffffffff16141561034b576040517f08c379a000000000000000000000000000000000000000000000000000000000815260040161034290612b89565b60405180910390fd5b60008083815260200190815260200160002060008473ffffffffffffffffffffffffffffffffffffffff1673ffffffffffffffffffffffffffffffffffffffff16815260200190815260200160002054905092915050565b60007fd9b67a26000000000000000000000000000000000000000000000000000000007bffffffffffffffffffffffffffffffffffffffffffffffffffffffff1916827bffffffffffffffffffffffffffffffffffffffffffffffffffffffff1916148061046e57507f0e89341c000000000000000000000000000000000000000000000000000000007bffffffffffffffffffffffffffffffffffffffffffffffffffffffff1916827bffffffffffffffffffffffffffffffffffffffffffffffffffffffff1916145b8061047e575061047d82610a6e565b5b9050919050565b60606002805461049490612f58565b80601f01602080910402602001604051908101604052809291908181526020018280546104c090612f58565b801561050d5780601f106104e25761010080835404028352916020019161050d565b820191906000526020600020905b8154815290600101906020018083116104f057829003601f168201915b50505050509050919050565b61053433838360405180602001604052806000815250610ad8565b5050565b61055383838360405180602001604052806000815250610ad8565b505050565b610560610c89565b73ffffffffffffffffffffffffffffffffffffffff168573ffffffffffffffffffffffffffffffffffffffff1614806105a657506105a5856105a0610c89565b61089c565b5b6105e5576040517f08c379a00000000000000000000000000000000000000000000000000000000081526004016105dc90612c09565b60405180910390fd5b6105f28585858585610c91565b5050505050565b61061483838360405180602001604052806000815250610fff565b505050565b6060815183511461065f576040517f08c379a000000000000000000000000000000000000000000000000000000000815260040161065690612c89565b60405180910390fd5b6000835167ffffffffffffffff8111156106a2577f4e487b7100000000000000000000000000000000000000000000000000000000600052604160045260246000fd5b6040519080825280602002602001820160405280156106d05781602001602082028036833780820191505090505b50905060005b84518110156107bf5761076985828151811061071b577f4e487b7100000000000000000000000000000000000000000000000000000000600052603260045260246000fd5b602002602001015185838151811061075c577f4e487b7100000000000000000000000000000000000000000000000000000000600052603260045260246000fd5b60200260200101516102da565b8282815181106107a2577f4e487b7100000000000000000000000000000000000000000000000000000000600052603260045260246000fd5b602002602001018181525050806107b890612fbb565b90506106d6565b508091505092915050565b6107d2610c89565b73ffffffffffffffffffffffffffffffffffffffff168373ffffffffffffffffffffffffffffffffffffffff161480610818575061081783610812610c89565b61089c565b5b610857576040517f08c379a000000000000000000000000000000000000000000000000000000000815260040161084e90612bc9565b60405180910390fd5b610862838383611278565b505050565b610879610872610c89565b8383611593565b5050565b61089833838360405180602001604052806000815250610fff565b5050565b6000600160008473ffffffffffffffffffffffffffffffffffffffff1673ffffffffffffffffffffffffffffffffffffffff16815260200190815260200160002060008373ffffffffffffffffffffffffffffffffffffffff1673ffffffffffffffffffffffffffffffffffffffff16815260200190815260200160002060009054906101000a900460ff16905092915050565b610938610c89565b73ffffffffffffffffffffffffffffffffffffffff168573ffffffffffffffffffffffffffffffffffffffff16148061097e575061097d85610978610c89565b61089c565b5b6109bd576040517f08c379a00000000000000000000000000000000000000000000000000000000081526004016109b490612bc9565b60405180910390fd5b6109ca8585858585611700565b5050505050565b6109d9610c89565b73ffffffffffffffffffffffffffffffffffffffff168373ffffffffffffffffffffffffffffffffffffffff161480610a1f5750610a1e83610a19610c89565b61089c565b5b610a5e576040517f08c379a0000000000000000000000000000000000000000000000000000000008152600401610a5590612bc9565b60405180910390fd5b610a6983838361199c565b505050565b60007f01ffc9a7000000000000000000000000000000000000000000000000000000007bffffffffffffffffffffffffffffffffffffffffffffffffffffffff1916827bffffffffffffffffffffffffffffffffffffffffffffffffffffffff1916149050919050565b600073ffffffffffffffffffffffffffffffffffffffff168473ffffffffffffffffffffffffffffffffffffffff161415610b48576040517f08c379a0000000000000000000000000000000000000000000000000000000008152600401610b3f90612cc9565b60405180910390fd5b6000610b52610c89565b90506000610b5f85611be3565b90506000610b6c85611be3565b9050610b7d83600089858589611ca9565b8460008088815260200190815260200160002060008973ffffffffffffffffffffffffffffffffffffffff1673ffffffffffffffffffffffffffffffffffffffff1681526020019081526020016000206000828254610bdc9190612e4c565b925050819055508673ffffffffffffffffffffffffffffffffffffffff16600073ffffffffffffffffffffffffffffffffffffffff168473ffffffffffffffffffffffffffffffffffffffff167fc3d58168c5ae7397731d063d5bbf3d657854427343f4c083240f7aacaa2d0f628989604051610c5a929190612d04565b60405180910390a4610c7183600089858589611cb1565b610c8083600089898989611cb9565b50505050505050565b600033905090565b8151835114610cd5576040517f08c379a0000000000000000000000000000000000000000000000000000000008152600401610ccc90612ca9565b60405180910390fd5b600073ffffffffffffffffffffffffffffffffffffffff168473ffffffffffffffffffffffffffffffffffffffff161415610d45576040517f08c379a0000000000000000000000000000000000000000000000000000000008152600401610d3c90612be9565b60405180910390fd5b6000610d4f610c89565b9050610d5f818787878787611ca9565b60005b8451811015610f5c576000858281518110610da6577f4e487b7100000000000000000000000000000000000000000000000000000000600052603260045260246000fd5b602002602001015190506000858381518110610deb577f4e487b7100000000000000000000000000000000000000000000000000000000600052603260045260246000fd5b60200260200101519050600080600084815260200190815260200160002060008b73ffffffffffffffffffffffffffffffffffffffff1673ffffffffffffffffffffffffffffffffffffffff16815260200190815260200160002054905081811015610e8c576040517f08c379a0000000000000000000000000000000000000000000000000000000008152600401610e8390612c49565b60405180910390fd5b81810360008085815260200190815260200160002060008c73ffffffffffffffffffffffffffffffffffffffff1673ffffffffffffffffffffffffffffffffffffffff168152602001908152602001600020819055508160008085815260200190815260200160002060008b73ffffffffffffffffffffffffffffffffffffffff1673ffffffffffffffffffffffffffffffffffffffff1681526020019081526020016000206000828254610f419190612e4c565b9250508190555050505080610f5590612fbb565b9050610d62565b508473ffffffffffffffffffffffffffffffffffffffff168673ffffffffffffffffffffffffffffffffffffffff168273ffffffffffffffffffffffffffffffffffffffff167f4a39dc06d4c0dbc64b70af90fd698a233a518aa5d07e595d983b8c0526c8f7fb8787604051610fd3929190612ad5565b60405180910390a4610fe9818787878787611cb1565b610ff7818787878787611ea0565b505050505050565b600073ffffffffffffffffffffffffffffffffffffffff168473ffffffffffffffffffffffffffffffffffffffff16141561106f576040517f08c379a000000000000000000000000000000000000000000000000000000000815260040161106690612cc9565b60405180910390fd5b81518351146110b3576040517f08c379a00000000000000000000000000000000000000000000000000000000081526004016110aa90612ca9565b60405180910390fd5b60006110bd610c89565b90506110ce81600087878787611ca9565b60005b84518110156111d357838181518110611113577f4e487b7100000000000000000000000000000000000000000000000000000000600052603260045260246000fd5b6020026020010151600080878481518110611157577f4e487b7100000000000000000000000000000000000000000000000000000000600052603260045260246000fd5b6020026020010151815260200190815260200160002060008873ffffffffffffffffffffffffffffffffffffffff1673ffffffffffffffffffffffffffffffffffffffff16815260200190815260200160002060008282546111b99190612e4c565b9250508190555080806111cb90612fbb565b9150506110d1565b508473ffffffffffffffffffffffffffffffffffffffff16600073ffffffffffffffffffffffffffffffffffffffff168273ffffffffffffffffffffffffffffffffffffffff167f4a39dc06d4c0dbc64b70af90fd698a233a518aa5d07e595d983b8c0526c8f7fb878760405161124b929190612ad5565b60405180910390a461126281600087878787611cb1565b61127181600087878787611ea0565b5050505050565b600073ffffffffffffffffffffffffffffffffffffffff168373ffffffffffffffffffffffffffffffffffffffff1614156112e8576040517f08c379a00000000000000000000000000000000000000000000000000000000081526004016112df90612c29565b60405180910390fd5b805182511461132c576040517f08c379a000000000000000000000000000000000000000000000000000000000815260040161132390612ca9565b60405180910390fd5b6000611336610c89565b905061135681856000868660405180602001604052806000815250611ca9565b60005b83518110156114ef57600084828151811061139d577f4e487b7100000000000000000000000000000000000000000000000000000000600052603260045260246000fd5b6020026020010151905060008483815181106113e2577f4e487b7100000000000000000000000000000000000000000000000000000000600052603260045260246000fd5b60200260200101519050600080600084815260200190815260200160002060008973ffffffffffffffffffffffffffffffffffffffff1673ffffffffffffffffffffffffffffffffffffffff16815260200190815260200160002054905081811015611483576040517f08c379a000000000000000000000000000000000000000000000000000000000815260040161147a90612ba9565b60405180910390fd5b81810360008085815260200190815260200160002060008a73ffffffffffffffffffffffffffffffffffffffff1673ffffffffffffffffffffffffffffffffffffffff1681526020019081526020016000208190555050505080806114e790612fbb565b915050611359565b50600073ffffffffffffffffffffffffffffffffffffffff168473ffffffffffffffffffffffffffffffffffffffff168273ffffffffffffffffffffffffffffffffffffffff167f4a39dc06d4c0dbc64b70af90fd698a233a518aa5d07e595d983b8c0526c8f7fb8686604051611567929190612ad5565b60405180910390a461158d81856000868660405180602001604052806000815250611cb1565b50505050565b8173ffffffffffffffffffffffffffffffffffffffff168373ffffffffffffffffffffffffffffffffffffffff161415611602576040517f08c379a00000000000000000000000000000000000000000000000000000000081526004016115f990612c69565b60405180910390fd5b80600160008573ffffffffffffffffffffffffffffffffffffffff1673ffffffffffffffffffffffffffffffffffffffff16815260200190815260200160002060008473ffffffffffffffffffffffffffffffffffffffff1673ffffffffffffffffffffffffffffffffffffffff16815260200190815260200160002060006101000a81548160ff0219169083151502179055508173ffffffffffffffffffffffffffffffffffffffff168373ffffffffffffffffffffffffffffffffffffffff167f17307eab39ab6107e8899845ad3d59bd9653f200f220920489ca2b5937696c31836040516116f39190612b0c565b60405180910390a3505050565b600073ffffffffffffffffffffffffffffffffffffffff168473ffffffffffffffffffffffffffffffffffffffff161415611770576040517f08c379a000000000000000000000000000000000000000000000000000000000815260040161176790612be9565b60405180910390fd5b600061177a610c89565b9050600061178785611be3565b9050600061179485611be3565b90506117a4838989858589611ca9565b600080600088815260200190815260200160002060008a73ffffffffffffffffffffffffffffffffffffffff1673ffffffffffffffffffffffffffffffffffffffff1681526020019081526020016000205490508581101561183b576040517f08c379a000000000000000000000000000000000000000000000000000000000815260040161183290612c49565b60405180910390fd5b85810360008089815260200190815260200160002060008b73ffffffffffffffffffffffffffffffffffffffff1673ffffffffffffffffffffffffffffffffffffffff168152602001908152602001600020819055508560008089815260200190815260200160002060008a73ffffffffffffffffffffffffffffffffffffffff1673ffffffffffffffffffffffffffffffffffffffff16815260200190815260200160002060008282546118f09190612e4c565b925050819055508773ffffffffffffffffffffffffffffffffffffffff168973ffffffffffffffffffffffffffffffffffffffff168573ffffffffffffffffffffffffffffffffffffffff167fc3d58168c5ae7397731d063d5bbf3d657854427343f4c083240f7aacaa2d0f628a8a60405161196d929190612d04565b60405180910390a4611983848a8a86868a611cb1565b611991848a8a8a8a8a611cb9565b505050505050505050565b600073ffffffffffffffffffffffffffffffffffffffff168373ffffffffffffffffffffffffffffffffffffffff161415611a0c576040517f08c379a0000000000000000000000000000000000000000000000000000000008152600401611a0390612c29565b60405180910390fd5b6000611a16610c89565b90506000611a2384611be3565b90506000611a3084611be3565b9050611a5083876000858560405180602001604052806000815250611ca9565b600080600087815260200190815260200160002060008873ffffffffffffffffffffffffffffffffffffffff1673ffffffffffffffffffffffffffffffffffffffff16815260200190815260200160002054905084811015611ae7576040517f08c379a0000000000000000000000000000000000000000000000000000000008152600401611ade90612ba9565b60405180910390fd5b84810360008088815260200190815260200160002060008973ffffffffffffffffffffffffffffffffffffffff1673ffffffffffffffffffffffffffffffffffffffff16815260200190815260200160002081905550600073ffffffffffffffffffffffffffffffffffffffff168773ffffffffffffffffffffffffffffffffffffffff168573ffffffffffffffffffffffffffffffffffffffff167fc3d58168c5ae7397731d063d5bbf3d657854427343f4c083240f7aacaa2d0f628989604051611bb4929190612d04565b60405180910390a4611bda84886000868660405180602001604052806000815250611cb1565b50505050505050565b60606000600167ffffffffffffffff811115611c28577f4e487b7100000000000000000000000000000000000000000000000000000000600052604160045260246000fd5b604051908082528060200260200182016040528015611c565781602001602082028036833780820191505090505b5090508281600081518110611c94577f4e487b7100000000000000000000000000000000000000000000000000000000600052603260045260246000fd5b60200260200101818152505080915050919050565b505050505050565b505050505050565b611cd88473ffffffffffffffffffffffffffffffffffffffff16612087565b15611e98578373ffffffffffffffffffffffffffffffffffffffff1663f23a6e6187878686866040518663ffffffff1660e01b8152600401611d1e959493929190612a59565b602060405180830381600087803b158015611d3857600080fd5b505af1925050508015611d6957506040513d601f19601f82011682018060405250810190611d669190612678565b60015b611e0f57611d75613091565b806308c379a01415611dd25750611d8a6134d4565b80611d955750611dd4565b806040517f08c379a0000000000000000000000000000000000000000000000000000000008152600401611dc99190612b27565b60405180910390fd5b505b6040517f08c379a0000000000000000000000000000000000000000000000000000000008152600401611e0690612b49565b60405180910390fd5b63f23a6e6160e01b7bffffffffffffffffffffffffffffffffffffffffffffffffffffffff1916817bffffffffffffffffffffffffffffffffffffffffffffffffffffffff191614611e96576040517f08c379a0000000000000000000000000000000000000000000000000000000008152600401611e8d90612b69565b60405180910390fd5b505b505050505050565b611ebf8473ffffffffffffffffffffffffffffffffffffffff16612087565b1561207f578373ffffffffffffffffffffffffffffffffffffffff1663bc197c8187878686866040518663ffffffff1660e01b8152600401611f059594939291906129f1565b602060405180830381600087803b158015611f1f57600080fd5b505af1925050508015611f5057506040513d601f19601f82011682018060405250810190611f4d9190612678565b60015b611ff657611f5c613091565b806308c379a01415611fb95750611f716134d4565b80611f7c5750611fbb565b806040517f08c379a0000000000000000000000000000000000000000000000000000000008152600401611fb09190612b27565b60405180910390fd5b505b6040517f08c379a0000000000000000000000000000000000000000000000000000000008152600401611fed90612b49565b60405180910390fd5b63bc197c8160e01b7bffffffffffffffffffffffffffffffffffffffffffffffffffffffff1916817bffffffffffffffffffffffffffffffffffffffffffffffffffffffff19161461207d576040517f08c379a000000000000000000000000000000000000000000000000000000000815260040161207490612b69565b60405180910390fd5b505b505050505050565b6000808273ffffffffffffffffffffffffffffffffffffffff163b119050919050565b60006120bd6120b884612d52565b612d2d565b905080838252602082019050828560208602820111156120dc57600080fd5b60005b8581101561210c57816120f288826121c0565b8452602084019350602083019250506001810190506120df565b5050509392505050565b600061212961212484612d7e565b612d2d565b9050808382526020820190508285602086028201111561214857600080fd5b60005b85811015612178578161215e8882612292565b84526020840193506020830192505060018101905061214b565b5050509392505050565b600061219561219084612daa565b612d2d565b9050828152602081018484840111156121ad57600080fd5b6121b8848285612f16565b509392505050565b6000813590506121cf8161356a565b92915050565b600082601f8301126121e657600080fd5b81356121f68482602086016120aa565b91505092915050565b600082601f83011261221057600080fd5b8135612220848260208601612116565b91505092915050565b60008135905061223881613581565b92915050565b60008135905061224d81613598565b92915050565b60008151905061226281613598565b92915050565b600082601f83011261227957600080fd5b8135612289848260208601612182565b91505092915050565b6000813590506122a1816135af565b92915050565b600080604083850312156122ba57600080fd5b60006122c8858286016121c0565b92505060206122d9858286016121c0565b9150509250929050565b600080600080600060a086880312156122fb57600080fd5b6000612309888289016121c0565b955050602061231a888289016121c0565b945050604086013567ffffffffffffffff81111561233757600080fd5b612343888289016121ff565b935050606086013567ffffffffffffffff81111561236057600080fd5b61236c888289016121ff565b925050608086013567ffffffffffffffff81111561238957600080fd5b61239588828901612268565b9150509295509295909350565b600080600080600060a086880312156123ba57600080fd5b60006123c8888289016121c0565b95505060206123d9888289016121c0565b94505060406123ea88828901612292565b93505060606123fb88828901612292565b925050608086013567ffffffffffffffff81111561241857600080fd5b61242488828901612268565b9150509295509295909350565b60008060006060848603121561244657600080fd5b6000612454868287016121c0565b935050602084013567ffffffffffffffff81111561247157600080fd5b61247d868287016121ff565b925050604084013567ffffffffffffffff81111561249a57600080fd5b6124a6868287016121ff565b9150509250925092565b600080604083850312156124c357600080fd5b60006124d1858286016121c0565b92505060206124e285828601612229565b9150509250929050565b600080604083850312156124ff57600080fd5b600061250d858286016121c0565b925050602061251e85828601612292565b9150509250929050565b60008060006060848603121561253d57600080fd5b600061254b868287016121c0565b935050602061255c86828701612292565b925050604061256d86828701612292565b9150509250925092565b6000806040838503121561258a57600080fd5b600083013567ffffffffffffffff8111156125a457600080fd5b6125b0858286016121d5565b925050602083013567ffffffffffffffff8111156125cd57600080fd5b6125d9858286016121ff565b9150509250929050565b600080604083850312156125f657600080fd5b600083013567ffffffffffffffff81111561261057600080fd5b61261c858286016121ff565b925050602083013567ffffffffffffffff81111561263957600080fd5b612645858286016121ff565b9150509250929050565b60006020828403121561266157600080fd5b600061266f8482850161223e565b91505092915050565b60006020828403121561268a57600080fd5b600061269884828501612253565b91505092915050565b6000602082840312156126b357600080fd5b60006126c184828501612292565b91505092915050565b600080604083850312156126dd57600080fd5b60006126eb85828601612292565b92505060206126fc85828601612292565b9150509250929050565b600061271283836129d3565b60208301905092915050565b61272781612ea2565b82525050565b600061273882612deb565b6127428185612e19565b935061274d83612ddb565b8060005b8381101561277e5781516127658882612706565b975061277083612e0c565b925050600181019050612751565b5085935050505092915050565b61279481612eb4565b82525050565b60006127a582612df6565b6127af8185612e2a565b93506127bf818560208601612f25565b6127c8816130b3565b840191505092915050565b60006127de82612e01565b6127e88185612e3b565b93506127f8818560208601612f25565b612801816130b3565b840191505092915050565b6000612819603483612e3b565b9150612824826130d1565b604082019050919050565b600061283c602883612e3b565b915061284782613120565b604082019050919050565b600061285f602b83612e3b565b915061286a8261316f565b604082019050919050565b6000612882602483612e3b565b915061288d826131be565b604082019050919050565b60006128a5602983612e3b565b91506128b08261320d565b604082019050919050565b60006128c8602583612e3b565b91506128d38261325c565b604082019050919050565b60006128eb603283612e3b565b91506128f6826132ab565b604082019050919050565b600061290e602383612e3b565b9150612919826132fa565b604082019050919050565b6000612931602a83612e3b565b915061293c82613349565b604082019050919050565b6000612954602983612e3b565b915061295f82613398565b604082019050919050565b6000612977602983612e3b565b9150612982826133e7565b604082019050919050565b600061299a602883612e3b565b91506129a582613436565b604082019050919050565b60006129bd602183612e3b565b91506129c882613485565b604082019050919050565b6129dc81612f0c565b82525050565b6129eb81612f0c565b82525050565b600060a082019050612a06600083018861271e565b612a13602083018761271e565b8181036040830152612a25818661272d565b90508181036060830152612a39818561272d565b90508181036080830152612a4d818461279a565b90509695505050505050565b600060a082019050612a6e600083018861271e565b612a7b602083018761271e565b612a8860408301866129e2565b612a9560608301856129e2565b8181036080830152612aa7818461279a565b90509695505050505050565b60006020820190508181036000830152612acd818461272d565b905092915050565b60006040820190508181036000830152612aef818561272d565b90508181036020830152612b03818461272d565b90509392505050565b6000602082019050612b21600083018461278b565b92915050565b60006020820190508181036000830152612b4181846127d3565b905092915050565b60006020820190508181036000830152612b628161280c565b9050919050565b60006020820190508181036000830152612b828161282f565b9050919050565b60006020820190508181036000830152612ba281612852565b9050919050565b60006020820190508181036000830152612bc281612875565b9050919050565b60006020820190508181036000830152612be281612898565b9050919050565b60006020820190508181036000830152612c02816128bb565b9050919050565b60006020820190508181036000830152612c22816128de565b9050919050565b60006020820190508181036000830152612c4281612901565b9050919050565b60006020820190508181036000830152612c6281612924565b9050919050565b60006020820190508181036000830152612c8281612947565b9050919050565b60006020820190508181036000830152612ca28161296a565b9050919050565b60006020820190508181036000830152612cc28161298d565b9050919050565b60006020820190508181036000830152612ce2816129b0565b9050919050565b6000602082019050612cfe60008301846129e2565b92915050565b6000604082019050612d1960008301856129e2565b612d2660208301846129e2565b9392505050565b6000612d37612d48565b9050612d438282612f8a565b919050565b6000604051905090565b600067ffffffffffffffff821115612d6d57612d6c613062565b5b602082029050602081019050919050565b600067ffffffffffffffff821115612d9957612d98613062565b5b602082029050602081019050919050565b600067ffffffffffffffff821115612dc557612dc4613062565b5b612dce826130b3565b9050602081019050919050565b6000819050602082019050919050565b600081519050919050565b600081519050919050565b600081519050919050565b6000602082019050919050565b600082825260208201905092915050565b600082825260208201905092915050565b600082825260208201905092915050565b6000612e5782612f0c565b9150612e6283612f0c565b9250827fffffffffffffffffffffffffffffffffffffffffffffffffffffffffffffffff03821115612e9757612e96613004565b5b828201905092915050565b6000612ead82612eec565b9050919050565b60008115159050919050565b60007fffffffff0000000000000000000000000000000000000000000000000000000082169050919050565b600073ffffffffffffffffffffffffffffffffffffffff82169050919050565b6000819050919050565b82818337600083830152505050565b60005b83811015612f43578082015181840152602081019050612f28565b83811115612f52576000848401525b50505050565b60006002820490506001821680612f7057607f821691505b60208210811415612f8457612f83613033565b5b50919050565b612f93826130b3565b810181811067ffffffffffffffff82111715612fb257612fb1613062565b5b80604052505050565b6000612fc682612f0c565b91507fffffffffffffffffffffffffffffffffffffffffffffffffffffffffffffffff821415612ff957612ff8613004565b5b600182019050919050565b7f4e487b7100000000000000000000000000000000000000000000000000000000600052601160045260246000fd5b7f4e487b7100000000000000000000000000000000000000000000000000000000600052602260045260246000fd5b7f4e487b7100000000000000000000000000000000000000000000000000000000600052604160045260246000fd5b600060033d11156130b05760046000803e6130ad6000516130c4565b90505b90565b6000601f19601f8301169050919050565b60008160e01c9050919050565b7f455243313135353a207472616e7366657220746f206e6f6e204552433131353560008201527f526563656976657220696d706c656d656e746572000000000000000000000000602082015250565b7f455243313135353a204552433131353552656365697665722072656a6563746560008201527f6420746f6b656e73000000000000000000000000000000000000000000000000602082015250565b7f455243313135353a2062616c616e636520717565727920666f7220746865207a60008201527f65726f2061646472657373000000000000000000000000000000000000000000602082015250565b7f455243313135353a206275726e20616d6f756e7420657863656564732062616c60008201527f616e636500000000000000000000000000000000000000000000000000000000602082015250565b7f455243313135353a2063616c6c6572206973206e6f74206f776e6572206e6f7260008201527f20617070726f7665640000000000000000000000000000000000000000000000602082015250565b7f455243313135353a207472616e7366657220746f20746865207a65726f20616460008201527f6472657373000000000000000000000000000000000000000000000000000000602082015250565b7f455243313135353a207472616e736665722063616c6c6572206973206e6f742060008201527f6f776e6572206e6f7220617070726f7665640000000000000000000000000000602082015250565b7f455243313135353a206275726e2066726f6d20746865207a65726f206164647260008201527f6573730000000000000000000000000000000000000000000000000000000000602082015250565b7f455243313135353a20696e73756666696369656e742062616c616e636520666f60008201527f72207472616e7366657200000000000000000000000000000000000000000000602082015250565b7f455243313135353a2073657474696e6720617070726f76616c2073746174757360008201527f20666f722073656c660000000000000000000000000000000000000000000000602082015250565b7f455243313135353a206163636f756e747320616e6420696473206c656e67746860008201527f206d69736d617463680000000000000000000000000000000000000000000000602082015250565b7f455243313135353a2069647320616e6420616d6f756e7473206c656e6774682060008201527f6d69736d61746368000000000000000000000000000000000000000000000000602082015250565b7f455243313135353a206d696e7420746f20746865207a65726f2061646472657360008201527f7300000000000000000000000000000000000000000000000000000000000000602082015250565b600060443d10156134e457613567565b6134ec612d48565b60043d036004823e80513d602482011167ffffffffffffffff82111715613514575050613567565b808201805167ffffffffffffffff8111156135325750505050613567565b80602083010160043d03850181111561354f575050505050613567565b61355e82602001850186612f8a565b82955050505050505b90565b61357381612ea2565b811461357e57600080fd5b50565b61358a81612eb4565b811461359557600080fd5b50565b6135a181612ec0565b81146135ac57600080fd5b50565b6135b881612f0c565b81146135c357600080fd5b5056fea264697066735822122055021543c16c4997a47a7ebf10245082c931f18f0b84b3fbacae13d519fae6de64736f6c63430008010033",
  "linkReferences": {},
  "deployedLinkReferences": {}
}